:100000000C9434000C9451000C9451000C94510049
:100010000C9451000C9451000C9451000C9451001C
:100020000C9451000C9451000C9451000C9451000C
:100030000C9451000C9451000C9451000C945100FC
:100040000C9451000C9451000C9451000C945100EC
:100050000C9451000C943C010C9451000C945100F0
:100060000C9451000C94510011241FBECFEFD8E026
:10007000DEBFCDBF11E0A0E0B1E0EEE9F6E002C0E6
:1000800005900D92AA30B107D9F721E0AAE0B1E0BE
:1000900001C01D92A731B207E1F70E948A000C94BB
:1000A0004D030C9400008AB180698AB984B18160E3
:1000B00084B908958BB180688BB98BB18F778BB978
:1000C00008958BB180618BB981E0982F9A95F1F7F3
:1000D0009BB19F7E9BB98A95F1F708950F931F936B
:1000E000CF938C01C0E00EC0112324F485B1816050
:1000F00085B903C085B18E7F85B90E945A00000F73
:10010000111FCF5FC03180F30E946100CF911F911A
:100110000F910895ECE7F0E0808180648083808116
:100120008460808380818083EAE7F0E08081806260
:1001300080838081876080838081806880838081E4
:100140008860808378948081806480830E945300DB
:10015000C0900A01D0900B01E0900C01F0900D01CD
:1001600020E030E040E251E4C701B6010E94800186
:100170000E94F2014B015C019B01ADECBCEC0E94C2
:100180003E039695879596958795969587959C01BC
:10019000220F331F880F991F880F991F880F991FEF
:1001A000820F931F9401281B390BE22FF0E0E050DF
:1001B000FF4FD081D0930E01C701B6010E94F2011A
:1001C0000F2EFAE08F2E912CA12CB12CF02DA50131
:1001D00094010E941C03E62FF0E0E050FF4FC08125
:1001E000C093160120E030E040E251E4C701B601BF
:1001F0000E94AF020E94F201A50194010E941C031B
:10020000E62FF0E0E050FF4F8081809311012D2F09
:1002100030E0322F222722603093100120930F010B
:100220002C2F30E0322F22272460309313012093AB
:10023000120190E0982F8827886090931501809391
:10024000140184E09FE70E946E0080910F0190915D
:1002500010010E946E0080911201909113010E9482
:100260006E0080911401909115010E946E0081E052
:100270009FEF0E946E006CCF1F920F920FB60F92ED
:1002800011242F933F934F935F936F937F938F939B
:100290009F93AF93BF93EF93FF936091780070911A
:1002A000790080E090E00E94210220E030E040EA06
:1002B00050E40E94AF0220E030E048EC52E40E949B
:1002C000AF0220E030EC4FE754E40E9480016093DD
:1002D0000A0170930B0180930C0190930D01FF9123
:1002E000EF91BF91AF919F918F917F916F915F91AE
:1002F0004F913F912F910F900FBE0F901F90189527
:100300000E9494010C9475020E946E0258F00E94A3
:10031000670240F029F45F3F29F00C945E0251110E
:100320000C94A9020C9464020E94860268F399233B
:10033000B1F3552391F3951B550BBB27AA276217E1
:100340007307840738F09F5F5F4F220F331F441FEE
:10035000AA1FA9F335D00E2E3AF0E0E832D0915022
:100360005040E695001CCAF72BD0FE2F29D0660F0F
:10037000771F881FBB1F261737074807AB07B0E852
:1003800009F0BB0B802DBF01FF2793585F4F3AF058
:100390009E3F510578F00C945E020C94A9025F3FD9
:1003A000E4F3983ED4F3869577956795B795F795DE
:1003B0009F5FC9F7880F911D9695879597F90895C6
:1003C000E1E0660F771F881FBB1F62177307840762
:1003D000BA0720F0621B730B840BBA0BEE1F88F771
:1003E000E09508950E948E0288F09F5798F0B92FEB
:1003F0009927B751B0F0E1F0660F771F881F991F5A
:100400001AF0BA95C9F714C0B13091F00E94A80251
:10041000B1E008950C94A802672F782F8827B85F61
:1004200039F0B93FCCF3869577956795B395D9F7B1
:100430003EF490958095709561957F4F8F4F9F4FBB
:100440000895E89409C097FB3EF4909580957095C7
:1004500061957F4F8F4F9F4F9923A9F0F92F96E910
:10046000BB279395F695879577956795B795F11185
:10047000F8CFFAF4BB0F11F460FF1BC06F5F7F4F22
:100480008F4F9F4F16C0882311F096E911C0772334
:1004900021F09EE8872F762F05C0662371F096E83D
:1004A000862F70E060E02AF09A95660F771F881F0C
:1004B000DAF7880F9695879597F9089597F99F67CA
:1004C00080E870E060E008959FEF80EC08950024DC
:1004D0000A941616170618060906089500240A94A9
:1004E00012161306140605060895092E0394000C2F
:1004F00011F4882352F0BB0F40F4BF2B11F460FFBE
:1005000004C06F5F7F4F8F4F9F4F089557FD9058E6
:10051000440F551F59F05F3F71F04795880F97FBC7
:10052000991F61F09F3F79F0879508951216130681
:100530001406551FF2CF4695F1DF08C016161706B0
:100540001806991FF1CF86957105610508940895E5
:10055000E894BB2766277727CB0197F908950E9477
:10056000C2020C9475020E94670238F00E946E026B
:1005700020F0952311F00C945E020C946402112477
:100580000C94A9020E94860270F3959FC1F3950F07
:1005900050E0551F629FF001729FBB27F00DB11D07
:1005A000639FAA27F00DB11DAA1F649F6627B00D97
:1005B000A11D661F829F2227B00DA11D621F739F80
:1005C000B00DA11D621F839FA00D611D221F749F8E
:1005D0003327A00D611D231F849F600D211D822FD5
:1005E000762F6A2F11249F5750409AF0F1F08823FC
:1005F0004AF0EE0FFF1FBB1F661F771F881F915029
:100600005040A9F79E3F510580F00C945E020C9477
:10061000A9025F3FE4F3983ED4F3869577956795FA
:10062000B795F795E7959F5FC1F7FE2B880F911D52
:100630009695879597F90895A1E21A2EAA1BBB1BE0
:10064000FD010DC0AA1FBB1FEE1FFF1FA217B3079E
:10065000E407F50720F0A21BB30BE40BF50B661FB4
:10066000771F881F991F1A9469F760957095809578
:1006700090959B01AC01BD01CF010895A29FB001EF
:10068000B39FC001A39F700D811D1124911DB29FC6
:0E069000700D811D1124911D0895F894FFCF67
:0A069E00C0F9A4B0999282F8809888
:00000001FF
