:100000000C9434000C9451000C9451000C94510049
:100010000C9451000C9451000C9451000C9451001C
:100020000C9451000C9451000C9451000C9451000C
:100030000C9451000C9451000C9484000C945100C9
:100040000C9451000C9451000C9451000C945100EC
:100050000C9451000C94DA000C9451000C94510053
:100060000C9451000C94510011241FBECFEFD8E026
:10007000DEBFCDBF11E0A0E0B1E0E2E6F5E002C0F6
:1000800005900D92A230B107D9F721E0A2E0B1E0CE
:1000900001C01D92A630B207E1F70E9453000C94F4
:1000A000AF020C94000087B1806287B9ECE7F0E002
:1000B00080818064808380818F7D80838081807F48
:1000C0008083EAE7F0E080818062808380818760BE
:1000D0008083808180688083808188608083808144
:1000E00080648083789484B5826084BD8EE287BD0D
:1000F000EEE6F0E080818260808385B5846085BD16
:1001000085B58C7F85BDFFCF1F920F920FB60F92E2
:1001100011242F933F934F935F936F937F938F930C
:100120009F93AF93BF93EF93FF93909100018BEA5E
:10013000989F812D11248695282F220F820F981BBE
:1001400090930001911115C088B1806288B96091C7
:1001500002017091030180910401909105010E94B8
:10016000850167BD85B5846085BD85B58C7F85BDFE
:100170000BC088B18F7D88B98AE987BD85B5856058
:1001800085BD85B58D7F85BD809100018F5F809392
:100190000001FF91EF91BF91AF919F918F917F915E
:1001A0006F915F914F913F912F910F900FBE0F90E4
:1001B0001F9018951F920F920FB60F9211242F9334
:1001C0003F934F935F936F937F938F939F93AF93DF
:1001D000BF93EF93FF93609178007091790080E076
:1001E00090E00E94B4012CE03FE24CEB5DE30E9402
:1001F000420220E030E048E352E40E94190160939B
:100200000201709303018093040190930501FF9113
:10021000EF91BF91AF919F918F917F916F915F917E
:100220004F913F912F910F900FBE0F901F901895F7
:100230005058BB27AA270E9430010C9408020E9444
:10024000FA0138F00E94010220F039F49F3F19F4BE
:1002500026F40C94F7010EF4E095E7FB0C94F10101
:10026000E92F0E94190258F3BA176207730784072F
:10027000950720F079F4A6F50C943B020EF4E09576
:100280000B2EBA2FA02D0B01B90190010C01CA0150
:10029000A0011124FF27591B99F0593F50F4503EFB
:1002A00068F11A16F040A22F232F342F4427585FED
:1002B000F3CF469537952795A795F0405395C9F705
:1002C0007EF41F16BA0B620B730B840BBAF09150BD
:1002D000A1F0FF0FBB1F661F771F881FC2F70EC05C
:1002E000BA0F621F731F841F48F48795779567952F
:1002F000B795F7959E3F08F0B0CF9395880F08F01B
:100300009927EE0F9795879508950E94210288F00E
:100310009F5798F0B92F9927B751B0F0E1F0660FC9
:10032000771F881F991F1AF0BA95C9F714C0B1300A
:1003300091F00E943B02B1E008950C943B02672FBC
:10034000782F8827B85F39F0B93FCCF38695779539
:100350006795B395D9F73EF4909580957095619522
:100360007F4F8F4F9F4F0895E89409C097FB3EF44D
:1003700090958095709561957F4F8F4F9F4F9923F2
:10038000A9F0F92F96E9BB279395F6958795779570
:100390006795B795F111F8CFFAF4BB0F11F460FF30
:1003A0001BC06F5F7F4F8F4F9F4F16C0882311F088
:1003B00096E911C0772321F09EE8872F762F05C09C
:1003C000662371F096E8862F70E060E02AF09A9537
:1003D000660F771F881FDAF7880F9695879597F92C
:1003E000089597F99F6780E870E060E008959FEFB7
:1003F00080EC089500240A941616170618060906BC
:10040000089500240A94121613061406050608958A
:10041000092E0394000C11F4882352F0BB0F40F412
:10042000BF2B11F460FF04C06F5F7F4F8F4F9F4F52
:10043000089557FD9058440F551F59F05F3F71F0D4
:100440004795880F97FB991F61F09F3F79F087953B
:100450000895121613061406551FF2CF4695F1DFC4
:1004600008C0161617061806991FF1CF8695710554
:10047000610508940895E894BB2766277727CB0188
:1004800097F908950E9455020C9408020E94FA01FF
:1004900038F00E94010220F0952311F00C94F10134
:1004A0000C94F70111240C943C020E94190270F381
:1004B000959FC1F3950F50E0551F629FF001729F09
:1004C000BB27F00DB11D639FAA27F00DB11DAA1F18
:1004D000649F6627B00DA11D661F829F2227B00D65
:1004E000A11D621F739FB00DA11D621F839FA00DF0
:1004F000611D221F749F3327A00D611D231F849F40
:10050000600D211D822F762F6A2F11249F57504096
:100510009AF0F1F088234AF0EE0FFF1FBB1F661F11
:10052000771F881F91505040A9F79E3F510580F0DA
:100530000C94F1010C943C025F3FE4F3983ED4F339
:10054000869577956795B795F795E7959F5FC1F77E
:10055000FE2B880F911D9695879597F90895F8942D
:02056000FFCFCB
:02056200010096
:00000001FF
