:100000000C9434000C9451000C9451000C94510049
:100010000C9451000C9451000C9451000C9451001C
:100020000C9451000C9451000C9451000C9451000C
:100030000C9451000C9451000C9451000C945100FC
:100040000C9451000C9451000C9451000C945100EC
:100050000C9451000C9451000C9451000C945100DC
:100060000C9451000C94510011241FBECFEFD8E026
:10007000DEBFCDBF11E0A0E0B1E0E2ECF4E002C0F1
:1000800005900D92A432B107D9F721E0A4E2B1E0C6
:1000900001C01D92AA32B207E1F70E94F6010C944A
:1000A0005F020C94000085B1826085B985E08A9575
:1000B000F1F7000085B18D7F85B98FE891E0019758
:1000C000F1F700C000000895CF93C82F662321F0F8
:1000D00085B1816085B903C085B18E7F85B98FE315
:1000E00096E00197F1F700C0000084B1846084B904
:1000F00084B1886084B984B1806184B984B180623C
:1001000084B985B18F7D85B985B18F7E85B985B17B
:10011000877F85B985B18B7F85B9CC231CF485B1E8
:10012000806285B9C6FF03C085B1806185B9C5FF0E
:1001300003C085B1886085B9C4FF03C085B1846000
:1001400085B90E94530085B18F7D85B985B18F7EB9
:1001500085B985B1877F85B985B18B7F85B9C3FFA7
:1001600003C085B1806285B9C2FF03C085B18061DB
:1001700085B9C1FF03C085B1886085B9C0FF03C0E0
:1001800085B1846085B90E94530085B1846085B9CA
:1001900085B1886085B985B1806185B985B1806296
:1001A00085B9CF910895882321F085B1816085B903
:1001B00003C085B18E7F85B98FE396E00197F1F793
:1001C00000C0000080E0089580E00E94D3008823F2
:1001D000DCF385E18A95F1F7000080E00E94D3000E
:1001E0000895CF93C82F0E94E40060E08C2F0E94F6
:1001F0006400CF910895611104C080580E94F100FD
:10020000089580540E94F100089581E00E94F10059
:100210008FE39FE10197F1F700C000000895CF93AD
:10022000C82F0E94E400CA3049F4803410F480E4FE
:1002300001C080E080580E94F10004C061E08C2F72
:100240000E946400CF910895CF93DF93FC0103C017
:100250000E940F01FE01EF01219680818111F8CFEC
:10026000DF91CF910895CF93C82F84B1816084B975
:1002700084B1826084B984B1846084B984B18860B7
:1002800084B984B1806184B984B1806284B98FEF0C
:1002900099EF0197F1F700C0000085B1886085B93A
:1002A00085B1846085B90E9453008FE19EE4019777
:1002B000F1F700C000000E9453008FEF90E001971B
:1002C000F1F700C000000E9453008FEF90E001970B
:1002D000F1F700C0000085B18B7F85B90E94530003
:1002E0008FEF90E00197F1F700C0000088E20E94D4
:1002F000F10088E00E94F1000E94050186E00E9462
:10030000F1008C2F0E94F100CF9108954C9B0FC0FB
:100310002BC0809125018F5F809325012FEF81EE07
:1003200094E0215080409040E1F700C000004C9BD9
:10033000F0CF80912501843120F081E08093260167
:1003400013C0809124018F5F809324014AE067E20B
:1003500071E090E00E942A0261E080E00E94FB00D0
:1003600087E291E00E9424011092250108951CC0AB
:100370002FEF83ED90E3215080409040E1F700C0E3
:100380000000809124018150809324014AE067E2BB
:1003900071E090E00E942A0261E080E00E94FB0090
:1003A00087E291E00E942401809124018111E0CF35
:1003B00082E080932601089580912601823059F4CD
:1003C0000E94050180E091E00E94240180912601B5
:1003D0008F5F809326018BB180648BB94C9905C0E7
:1003E0008BB18F7B8BB91092260108958AB18F7ED5
:1003F0008AB98BB180618BB98AB180648AB98CE08B
:100400000E9433018091260181110EC00E940501D6
:1004100089E091E00E94240102C00E94860180913F
:1004200026018823D1F3EECF813089F40E940501A3
:1004300089E191E00E94240161E080E00E94FB00DC
:1004400087E291E00E9424010E94B701DBCF0E9465
:10045000DC01D8CFBB274A3031F4992322F4BDE226
:10046000909581959F4F0C943602BB27FB01552731
:10047000AA27880F991FAA1FA41710F0A41B839501
:100480005051B9F7A05DAA3308F0A95DA193009778
:1004900079F7B111B1931192CB010C944F02DC01A9
:1004A000FC01672F71917723E1F7329704C07C91AB
:1004B0006D9370836291AE17BF07C8F30895F894E7
:0204C000FFCF6C
:1004C20046696E697368213A00496E74726F647589
:1004D20063652074696D653A00436F756E74646F6D
:0404E200776E3A00F7
:00000001FF
