:100000000C9434000C94A4000C94A4000C94A40050
:100010000C94A4000C94A4000C94A4000C94A400D0
:100020000C94A4000C94A4000C94A4000C94A400C0
:100030000C94A4000C94A4000C94A4000C94A400B0
:100040000C94A4000C94A4000C94A4000C94A400A0
:100050000C94A4000C94A4000C94A4000C94A40090
:100060000C94A4000C94A40011241FBECFEFD8E080
:10007000DEBFCDBF0E9440000C943E00F894FFCF3D
:100080008FEF8AB984B18E7F84B985B1816085B9DB
:10009000189B2DC08AE88BB92FEF89EF90E0215093
:1000A00080409040E1F700C0000089E88BB92FEF55
:1000B00089EF90E0215080409040E1F700C00000BF
:1000C00085E88BB92FEF89EF90E021508040904078
:1000D000E1F700C0000086E88BB92FEF89EF90E0D0
:1000E000215080409040E1F700C00000D1CF86E869
:1000F0008BB92FEF89EF90E0215080409040E1F7DD
:1001000000C0000085E88BB92FEF89EF90E0215007
:1001100080409040E1F700C0000089E88BB92FEFE4
:1001200089EF90E0215080409040E1F700C000004E
:100130008AE88BB92FEF89EF90E021508040904002
:08014000E1F700C00000A4CFAC
:040148000C94000013
:00000001FF
