:100000000C9434000C9451000C9451000C94510049
:100010000C9451000C9451000C9451000C9451001C
:100020000C9451000C9451000C9451000C9451000C
:100030000C9451000C9451000C9451000C945100FC
:100040000C9451000C9451000C9451000C945100EC
:100050000C9451000C9451000C9451000C945100DC
:100060000C9451000C94510011241FBECFEFD8E026
:10007000DEBFCDBF11E0A0E0B1E0E4E0F4E002C0FB
:1000800005900D92A032B107D9F721E0A0E2B1E0CE
:1000900001C01D92A832B207E1F70E94B9010C9489
:1000A00000020C94000085B1826085B985E08A95D4
:1000B000F1F7000085B18D7F85B98FE891E0019758
:1000C000F1F700C000000895CF93C82F662321F0F8
:1000D00085B1816085B903C085B18E7F85B98FE315
:1000E00096E00197F1F700C0000084B1846084B904
:1000F00084B1886084B984B1806184B984B180623C
:1001000084B985B18F7D85B985B18F7E85B985B17B
:10011000877F85B985B18B7F85B9CC231CF485B1E8
:10012000806285B9C6FF03C085B1806185B9C5FF0E
:1001300003C085B1886085B9C4FF03C085B1846000
:1001400085B90E94530085B18F7D85B985B18F7EB9
:1001500085B985B1877F85B985B18B7F85B9C3FFA7
:1001600003C085B1806285B9C2FF03C085B18061DB
:1001700085B9C1FF03C085B1886085B9C0FF03C0E0
:1001800085B1846085B90E94530085B1846085B9CA
:1001900085B1886085B985B1806185B985B1806296
:1001A00085B9CF910895882321F085B1816085B903
:1001B00003C085B18E7F85B98FE396E00197F1F793
:1001C00000C0000080E0089580E00E94D3008823F2
:1001D000DCF385E18A95F1F7000080E00E94D3000E
:1001E0000895CF93C82F0E94E40060E08C2F0E94F6
:1001F0006400CF910895611104C080580E94F100FD
:10020000089580540E94F100089581E00E94F10059
:100210008FE39FE10197F1F700C000000895CF93AD
:10022000C82F0E94E400CA3049F4803410F480E4FE
:1002300001C080E080580E94F10004C061E08C2F72
:100240000E946400CF910895CF93DF93FC0103C017
:100250000E940F01FE01EF01219680818111F8CFEC
:10026000DF91CF910895CF93C82F84B1816084B975
:1002700084B1826084B984B1846084B984B18860B7
:1002800084B984B1806184B984B1806284B98FEF0C
:1002900099EF0197F1F700C0000085B1886085B93A
:1002A00085B1846085B90E9453008FE19EE4019777
:1002B000F1F700C000000E9453008FEF90E001971B
:1002C000F1F700C000000E9453008FEF90E001970B
:1002D000F1F700C0000085B18B7F85B90E94530003
:1002E0008FEF90E00197F1F700C0000088E20E94D4
:1002F000F10088E00E94F1000E94050186E00E9462
:10030000F1008C2F0E94F100CF9108952AC09091A6
:1003100021019F5F909321014C9923C0F0E08DEC67
:10032000989F812D1124869586958695880F282F74
:10033000220F220F820F981B892FED5DFE4F9083B5
:10034000805D0E940F01809122018F5F80932201C6
:100350002FEF81EE94E0215080409040E1F700C003
:100360000000E0912201E53090F281E080932001CD
:1003700008958AB18F7E8AB98BB180618BB98CE088
:100380000E9433018091200181110DC00E9405015E
:1003900080E091E00E94240161E080E00E94FB0087
:1003A0000E948601EFCF0E9405018FE091E00E943C
:1003B000240161E080E00E94FB00109222010CC049
:1003C000F0E0ED5DFE4F8081805D0E940F01809125
:1003D00022018F5F80932201E0912201E53080F3BA
:1003E0004C99FECF2FEF81EE94E021508040904059
:1003F000E1F700C000001092200110922201C2CF4C
:04040000F894FFCF9E
:100404004765742061206E756D6265723A20004301
:100414006F6E67726174756C6174696F6E733A00A4
:00000001FF
